{
  "contractName": "Distribution",
  "abi": [
    {
      "constant": true,
      "inputs": [],
      "name": "totalShares",
      "outputs": [
        {
          "name": "",
          "type": "uint96"
        }
      ],
      "payable": false,
      "stateMutability": "view",
      "type": "function"
    },
    {
      "constant": true,
      "inputs": [],
      "name": "owner",
      "outputs": [
        {
          "name": "",
          "type": "address"
        }
      ],
      "payable": false,
      "stateMutability": "view",
      "type": "function"
    },
    {
      "inputs": [],
      "payable": false,
      "stateMutability": "nonpayable",
      "type": "constructor"
    },
    {
      "payable": true,
      "stateMutability": "payable",
      "type": "fallback"
    },
    {
      "anonymous": false,
      "inputs": [
        {
          "indexed": false,
          "name": "shareholder",
          "type": "address"
        },
        {
          "indexed": false,
          "name": "shareCount",
          "type": "uint96"
        }
      ],
      "name": "SetShares",
      "type": "event"
    },
    {
      "anonymous": false,
      "inputs": [
        {
          "indexed": false,
          "name": "shareholder",
          "type": "address"
        },
        {
          "indexed": false,
          "name": "value",
          "type": "uint256"
        }
      ],
      "name": "Distribute",
      "type": "event"
    },
    {
      "constant": false,
      "inputs": [
        {
          "name": "shareholder",
          "type": "address"
        },
        {
          "name": "shareCount",
          "type": "uint96"
        }
      ],
      "name": "setShares",
      "outputs": [],
      "payable": false,
      "stateMutability": "nonpayable",
      "type": "function"
    },
    {
      "constant": true,
      "inputs": [
        {
          "name": "shareholder",
          "type": "address"
        }
      ],
      "name": "sharesHeld",
      "outputs": [
        {
          "name": "",
          "type": "uint96"
        }
      ],
      "payable": false,
      "stateMutability": "view",
      "type": "function"
    },
    {
      "constant": false,
      "inputs": [],
      "name": "distribute",
      "outputs": [],
      "payable": true,
      "stateMutability": "payable",
      "type": "function"
    }
  ],
  "bytecode": "0x608060405233600160006101000a81548173ffffffffffffffffffffffffffffffffffffffff021916908373ffffffffffffffffffffffffffffffffffffffff16021790555034801561005157600080fd5b5061006c336064610071640100000000026401000000009004565b610410565b6000600260008473ffffffffffffffffffffffffffffffffffffffff1673ffffffffffffffffffffffffffffffffffffffff1681526020019081526020016000205490506000805490508110801561013057508273ffffffffffffffffffffffffffffffffffffffff166000828154811015156100ea57fe5b9060005260206000200160000160009054906101000a900473ffffffffffffffffffffffffffffffffffffffff1673ffffffffffffffffffffffffffffffffffffffff16145b156102095760008181548110151561014457fe5b9060005260206000200160000160149054906101000a90046bffffffffffffffffffffffff168203600360008282829054906101000a90046bffffffffffffffffffffffff160192506101000a8154816bffffffffffffffffffffffff02191690836bffffffffffffffffffffffff160217905550816000828154811015156101c957fe5b9060005260206000200160000160146101000a8154816bffffffffffffffffffffffff02191690836bffffffffffffffffffffffff160217905550610384565b600080549050600260008573ffffffffffffffffffffffffffffffffffffffff1673ffffffffffffffffffffffffffffffffffffffff1681526020019081526020016000208190555081600360008282829054906101000a90046bffffffffffffffffffffffff160192506101000a8154816bffffffffffffffffffffffff02191690836bffffffffffffffffffffffff160217905550600060408051908101604052808573ffffffffffffffffffffffffffffffffffffffff168152602001846bffffffffffffffffffffffff1681525090806001815401808255809150509060018203906000526020600020016000909192909190915060008201518160000160006101000a81548173ffffffffffffffffffffffffffffffffffffffff021916908373ffffffffffffffffffffffffffffffffffffffff16021790555060208201518160000160146101000a8154816bffffffffffffffffffffffff02191690836bffffffffffffffffffffffff1602179055505050505b7ffaa901dbd4fe1690355481c91cc4c5921c8074ade7f9763f4030ddd1627817978383604051808373ffffffffffffffffffffffffffffffffffffffff1673ffffffffffffffffffffffffffffffffffffffff168152602001826bffffffffffffffffffffffff166bffffffffffffffffffffffff1681526020019250505060405180910390a1505050565b6109428061041f6000396000f30060806040526004361061006d576000357c0100000000000000000000000000000000000000000000000000000000900463ffffffff1680633a98ef3914610082578063741bd2a5146100c95780638da5cb5b1461013c578063bded91e614610193578063e4fc6b6d146101ee575b6123285a11156100805761007f6101f8565b5b005b34801561008e57600080fd5b506100976103cd565b60405180826bffffffffffffffffffffffff166bffffffffffffffffffffffff16815260200191505060405180910390f35b3480156100d557600080fd5b5061010a600480360381019080803573ffffffffffffffffffffffffffffffffffffffff1690602001909291905050506103eb565b60405180826bffffffffffffffffffffffff166bffffffffffffffffffffffff16815260200191505060405180910390f35b34801561014857600080fd5b506101516104e7565b604051808273ffffffffffffffffffffffffffffffffffffffff1673ffffffffffffffffffffffffffffffffffffffff16815260200191505060405180910390f35b34801561019f57600080fd5b506101ec600480360381019080803573ffffffffffffffffffffffffffffffffffffffff16906020019092919080356bffffffffffffffffffffffff16906020019092919050505061050d565b005b6101f66101f8565b005b600080600080600080600360009054906101000a90046bffffffffffffffffffffffff166bffffffffffffffffffffffff163073ffffffffffffffffffffffffffffffffffffffff163181151561024b57fe5b049550600086141561025c576103c5565b6000805490509450600093505b848410156103c45760008481548110151561028057fe5b9060005260206000200160000160149054906101000a90046bffffffffffffffffffffffff166bffffffffffffffffffffffff1692506000831415156103b75785830291506000848154811015156102d457fe5b9060005260206000200160000160009054906101000a900473ffffffffffffffffffffffffffffffffffffffff1690508073ffffffffffffffffffffffffffffffffffffffff166108fc839081150290604051600060405180830381858888f1935050505015801561034a573d6000803e3d6000fd5b507fc1d32ad5cca423e7dda2123dbf8c482f8e77d00b631c06e903a47f2cec1334df8183604051808373ffffffffffffffffffffffffffffffffffffffff1673ffffffffffffffffffffffffffffffffffffffff1681526020018281526020019250505060405180910390a15b8380600101945050610269565b5b505050505050565b600360009054906101000a90046bffffffffffffffffffffffff1681565b600080600260008473ffffffffffffffffffffffffffffffffffffffff1673ffffffffffffffffffffffffffffffffffffffff1681526020019081526020016000205490508273ffffffffffffffffffffffffffffffffffffffff1660008281548110151561045657fe5b9060005260206000200160000160009054906101000a900473ffffffffffffffffffffffffffffffffffffffff1673ffffffffffffffffffffffffffffffffffffffff1614156104dc576000818154811015156104af57fe5b9060005260206000200160000160149054906101000a90046bffffffffffffffffffffffff1691506104e1565b600091505b50919050565b600160009054906101000a900473ffffffffffffffffffffffffffffffffffffffff1681565b600160009054906101000a900473ffffffffffffffffffffffffffffffffffffffff1673ffffffffffffffffffffffffffffffffffffffff163373ffffffffffffffffffffffffffffffffffffffff1614151561056957600080fd5b6105738282610577565b5050565b6000600260008473ffffffffffffffffffffffffffffffffffffffff1673ffffffffffffffffffffffffffffffffffffffff1681526020019081526020016000205490506000805490508110801561063657508273ffffffffffffffffffffffffffffffffffffffff166000828154811015156105f057fe5b9060005260206000200160000160009054906101000a900473ffffffffffffffffffffffffffffffffffffffff1673ffffffffffffffffffffffffffffffffffffffff16145b1561070f5760008181548110151561064a57fe5b9060005260206000200160000160149054906101000a90046bffffffffffffffffffffffff168203600360008282829054906101000a90046bffffffffffffffffffffffff160192506101000a8154816bffffffffffffffffffffffff02191690836bffffffffffffffffffffffff160217905550816000828154811015156106cf57fe5b9060005260206000200160000160146101000a8154816bffffffffffffffffffffffff02191690836bffffffffffffffffffffffff16021790555061088a565b600080549050600260008573ffffffffffffffffffffffffffffffffffffffff1673ffffffffffffffffffffffffffffffffffffffff1681526020019081526020016000208190555081600360008282829054906101000a90046bffffffffffffffffffffffff160192506101000a8154816bffffffffffffffffffffffff02191690836bffffffffffffffffffffffff160217905550600060408051908101604052808573ffffffffffffffffffffffffffffffffffffffff168152602001846bffffffffffffffffffffffff1681525090806001815401808255809150509060018203906000526020600020016000909192909190915060008201518160000160006101000a81548173ffffffffffffffffffffffffffffffffffffffff021916908373ffffffffffffffffffffffffffffffffffffffff16021790555060208201518160000160146101000a8154816bffffffffffffffffffffffff02191690836bffffffffffffffffffffffff1602179055505050505b7ffaa901dbd4fe1690355481c91cc4c5921c8074ade7f9763f4030ddd1627817978383604051808373ffffffffffffffffffffffffffffffffffffffff1673ffffffffffffffffffffffffffffffffffffffff168152602001826bffffffffffffffffffffffff166bffffffffffffffffffffffff1681526020019250505060405180910390a15050505600a165627a7a72305820272f2206dff750060f6d2785aaf9f90823ef338c770bb0685751f6ada684a9550029",
  "source": "pragma solidity ^0.4.24;\n\ncontract Distribution {\n  struct Share {\n    address shareholder;\n    uint96 shareCount;\n  }\n\n  event SetShares(address shareholder, uint96 shareCount);\n  event Distribute(address shareholder, uint value);\n\n  Share[] shares;\n  address public owner = msg.sender;\n  mapping (address => uint) shareIndex;\n  uint96 public totalShares;\n\n  constructor() public {\n    _setShares(msg.sender, 100);\n  }\n\n  function setShares(address shareholder, uint96 shareCount) public {\n    require(msg.sender == owner);\n    _setShares(shareholder, shareCount);\n  }\n\n  function _setShares(address shareholder, uint96 shareCount) private {\n    uint index = shareIndex[shareholder];\n    if (index < shares.length && shares[index].shareholder == shareholder) {\n      totalShares += shareCount - shares[index].shareCount;\n      shares[index].shareCount = shareCount;\n    } else {\n      shareIndex[shareholder] = shares.length;\n      totalShares += shareCount;\n      shares.push(Share(shareholder, shareCount));\n    }\n    emit SetShares(shareholder, shareCount);\n  }\n\n  function sharesHeld(address shareholder) public view returns (uint96) {\n    uint index = shareIndex[shareholder];\n    if (shares[index].shareholder == shareholder) {\n      return shares[index].shareCount;\n    } else {\n      return 0;\n    }\n  }\n\n  function distribute() public payable {\n    uint oneShare = address(this).balance / uint256(totalShares);\n    if (oneShare == 0) return;\n    uint sharesLength = shares.length;\n    for (uint i = 0; i < sharesLength; i++) {\n      uint shareCount = uint(shares[i].shareCount);\n      if (shareCount != 0) {\n        uint value = shareCount * oneShare;\n        address shareholder = shares[i].shareholder;\n        shareholder.transfer(value);\n        emit Distribute(shareholder, value);\n      }\n    }\n  }\n\n  function() public payable {\n    if (gasleft() > 9000) { // Don't distribute if someone just sends basic gas.\n      distribute();\n    }\n  }\n}\n",
  "sourcePath": "/home/james/workspace/distribution-contract/contracts/Distribution.sol",
  "compiler": {
    "name": "solc",
    "version": "0.4.24+commit.e67f0147.Emscripten.clang"
  },
  "schemaVersion": "2.0.1",
  "updatedAt": "2018-06-28T16:53:31.490Z"
}